{
  "contractName": "Campaigns",
  "abi": [
    {
      "inputs": [],
      "payable": false,
      "stateMutability": "nonpayable",
      "type": "constructor"
    },
    {
      "constant": false,
      "inputs": [
        {
          "name": "campaignAddress",
          "type": "address"
        },
        {
          "name": "title",
          "type": "string"
        },
        {
          "name": "name",
          "type": "string"
        },
        {
          "name": "tiers",
          "type": "uint256"
        }
      ],
      "name": "addCampaign",
      "outputs": [],
      "payable": false,
      "stateMutability": "nonpayable",
      "type": "function"
    },
    {
      "constant": true,
      "inputs": [],
      "name": "getNumCampaigns",
      "outputs": [
        {
          "name": "",
          "type": "uint256"
        }
      ],
      "payable": false,
      "stateMutability": "view",
      "type": "function"
    },
    {
      "constant": true,
      "inputs": [
        {
          "name": "index",
          "type": "uint256"
        }
      ],
      "name": "getCampaignDescription",
      "outputs": [
        {
          "name": "campaign",
          "type": "address"
        },
        {
          "name": "title",
          "type": "string"
        },
        {
          "name": "name",
          "type": "string"
        },
        {
          "name": "tiers",
          "type": "uint256"
        }
      ],
      "payable": false,
      "stateMutability": "view",
      "type": "function"
    }
  ],
  "bytecode": "0x608060405234801561001057600080fd5b5061075f806100206000396000f300608060405260043610610057576000357c0100000000000000000000000000000000000000000000000000000000900463ffffffff168063068782d21461005c578063b642edd5146101a8578063d9a9bb3e14610281575b600080fd5b34801561006857600080fd5b50610087600480360381019080803590602001909291905050506102ac565b604051808573ffffffffffffffffffffffffffffffffffffffff1673ffffffffffffffffffffffffffffffffffffffff1681526020018060200180602001848152602001838103835286818151815260200191508051906020019080838360005b838110156101035780820151818401526020810190506100e8565b50505050905090810190601f1680156101305780820380516001836020036101000a031916815260200191505b50838103825285818151815260200191508051906020019080838360005b8381101561016957808201518184015260208101905061014e565b50505050905090810190601f1680156101965780820380516001836020036101000a031916815260200191505b50965050505050505060405180910390f35b3480156101b457600080fd5b5061027f600480360381019080803573ffffffffffffffffffffffffffffffffffffffff169060200190929190803590602001908201803590602001908080601f0160208091040260200160405190810160405280939291908181526020018383808284378201915050505050509192919290803590602001908201803590602001908080601f016020809104026020016040519081016040528093929190818152602001838380828437820191505050505050919291929080359060200190929190505050610523565b005b34801561028d57600080fd5b50610296610682565b6040518082815260200191505060405180910390f35b6000606080600080600086101515156102c457600080fd5b600080549050861015156102d757600080fd5b6000868154811015156102e657fe5b9060005260206000200160009054906101000a900473ffffffffffffffffffffffffffffffffffffffff16905080600160008373ffffffffffffffffffffffffffffffffffffffff1673ffffffffffffffffffffffffffffffffffffffff168152602001908152602001600020600001600160008473ffffffffffffffffffffffffffffffffffffffff1673ffffffffffffffffffffffffffffffffffffffff168152602001908152602001600020600101600160008573ffffffffffffffffffffffffffffffffffffffff1673ffffffffffffffffffffffffffffffffffffffff16815260200190815260200160002060020154828054600181600116156101000203166002900480601f0160208091040260200160405190810160405280929190818152602001828054600181600116156101000203166002900480156104705780601f1061044557610100808354040283529160200191610470565b820191906000526020600020905b81548152906001019060200180831161045357829003601f168201915b50505050509250818054600181600116156101000203166002900480601f01602080910402602001604051908101604052809291908181526020018280546001816001161561010002031660029004801561050c5780601f106104e15761010080835404028352916020019161050c565b820191906000526020600020905b8154815290600101906020018083116104ef57829003601f168201915b505050505091509450945094509450509193509193565b6000600160008673ffffffffffffffffffffffffffffffffffffffff1673ffffffffffffffffffffffffffffffffffffffff1681526020019081526020016000206002015414151561057457600080fd5b60008490806001815401808255809150509060018203906000526020600020016000909192909190916101000a81548173ffffffffffffffffffffffffffffffffffffffff021916908373ffffffffffffffffffffffffffffffffffffffff1602179055505060606040519081016040528084815260200183815260200182815250600160008673ffffffffffffffffffffffffffffffffffffffff1673ffffffffffffffffffffffffffffffffffffffff168152602001908152602001600020600082015181600001908051906020019061065192919061068e565b50602082015181600101908051906020019061066e92919061068e565b506040820151816002015590505050505050565b60008080549050905090565b828054600181600116156101000203166002900490600052602060002090601f016020900481019282601f106106cf57805160ff19168380011785556106fd565b828001600101855582156106fd579182015b828111156106fc5782518255916020019190600101906106e1565b5b50905061070a919061070e565b5090565b61073091905b8082111561072c576000816000905550600101610714565b5090565b905600a165627a7a72305820b398eed6625c4e6526996bedb4e23323e785d07677db63894a22dc269e6807920029",
  "source": "pragma solidity ^0.4.15;\n\ncontract Campaigns {\n\n    address[] campaigns;\n    mapping(address => CampaignDescription) desc;\n\n    struct CampaignDescription {\n        string title;\n        string name;\n        uint256 numTiers;\n    }\n\n    constructor() {}\n\n    function addCampaign(address campaignAddress, string title, string name, uint256 tiers) {\n        require(desc[campaignAddress].numTiers == 0);\n        campaigns.push(campaignAddress);\n        desc[campaignAddress] = CampaignDescription(title, name, tiers);\n    }\n\n    function getNumCampaigns() constant returns (uint256) {\n        return campaigns.length;\n    }\n\n    function getCampaignDescription(uint256 index) constant returns (address campaign, string title, string name, uint256 tiers) {\n        require(index >= 0);\n        require(index < campaigns.length);\n\n        address camp = campaigns[index];\n        return (camp, desc[camp].title, desc[camp].name, desc[camp].numTiers);\n\n    }\n\n}",
  "sourcePath": "/Users/imac/Pingendo/Angelhacks/blockchainge/blockchain/contracts/Campaigns.sol",
  "compiler": {
    "name": "solc",
    "version": "0.4.23+commit.124ca40d.Emscripten.clang"
  },
  "schemaVersion": "2.0.0",
  "updatedAt": "2018-06-23T21:46:26.001Z"
}