{
  "contractName": "Campaign",
  "abi": [
    {
      "constant": true,
      "inputs": [],
      "name": "name",
      "outputs": [
        {
          "name": "",
          "type": "string"
        }
      ],
      "payable": false,
      "stateMutability": "view",
      "type": "function"
    },
    {
      "constant": true,
      "inputs": [],
      "name": "hash",
      "outputs": [
        {
          "name": "",
          "type": "string"
        }
      ],
      "payable": false,
      "stateMutability": "view",
      "type": "function"
    },
    {
      "constant": true,
      "inputs": [
        {
          "name": "",
          "type": "address"
        }
      ],
      "name": "balances",
      "outputs": [
        {
          "name": "",
          "type": "uint256"
        }
      ],
      "payable": false,
      "stateMutability": "view",
      "type": "function"
    },
    {
      "constant": true,
      "inputs": [],
      "name": "total",
      "outputs": [
        {
          "name": "",
          "type": "uint256"
        }
      ],
      "payable": false,
      "stateMutability": "view",
      "type": "function"
    },
    {
      "constant": true,
      "inputs": [],
      "name": "title",
      "outputs": [
        {
          "name": "",
          "type": "string"
        }
      ],
      "payable": false,
      "stateMutability": "view",
      "type": "function"
    },
    {
      "constant": true,
      "inputs": [
        {
          "name": "",
          "type": "uint256"
        }
      ],
      "name": "donors",
      "outputs": [
        {
          "name": "donorAddress",
          "type": "address"
        },
        {
          "name": "numAmount",
          "type": "uint256"
        }
      ],
      "payable": false,
      "stateMutability": "view",
      "type": "function"
    },
    {
      "constant": true,
      "inputs": [],
      "name": "donorNum",
      "outputs": [
        {
          "name": "",
          "type": "uint256"
        }
      ],
      "payable": false,
      "stateMutability": "view",
      "type": "function"
    },
    {
      "constant": true,
      "inputs": [],
      "name": "description",
      "outputs": [
        {
          "name": "",
          "type": "string"
        }
      ],
      "payable": false,
      "stateMutability": "view",
      "type": "function"
    },
    {
      "constant": true,
      "inputs": [],
      "name": "owner",
      "outputs": [
        {
          "name": "",
          "type": "address"
        }
      ],
      "payable": false,
      "stateMutability": "view",
      "type": "function"
    },
    {
      "constant": true,
      "inputs": [
        {
          "name": "",
          "type": "uint256"
        }
      ],
      "name": "checkpoints",
      "outputs": [
        {
          "name": "",
          "type": "uint256"
        }
      ],
      "payable": false,
      "stateMutability": "view",
      "type": "function"
    },
    {
      "constant": true,
      "inputs": [],
      "name": "currCheckpoint",
      "outputs": [
        {
          "name": "",
          "type": "uint256"
        }
      ],
      "payable": false,
      "stateMutability": "view",
      "type": "function"
    },
    {
      "constant": true,
      "inputs": [],
      "name": "totalCheckpoints",
      "outputs": [
        {
          "name": "",
          "type": "uint256"
        }
      ],
      "payable": false,
      "stateMutability": "view",
      "type": "function"
    },
    {
      "inputs": [
        {
          "name": "t",
          "type": "string"
        },
        {
          "name": "n",
          "type": "string"
        },
        {
          "name": "numChckpts",
          "type": "uint256"
        },
        {
          "name": "descr",
          "type": "string"
        },
        {
          "name": "_hash",
          "type": "string"
        }
      ],
      "payable": false,
      "stateMutability": "nonpayable",
      "type": "constructor"
    },
    {
      "constant": true,
      "inputs": [],
      "name": "getFields",
      "outputs": [
        {
          "name": "",
          "type": "address"
        },
        {
          "name": "",
          "type": "string"
        },
        {
          "name": "",
          "type": "string"
        },
        {
          "name": "",
          "type": "string"
        },
        {
          "name": "",
          "type": "uint256"
        },
        {
          "name": "",
          "type": "uint256"
        },
        {
          "name": "",
          "type": "uint256"
        },
        {
          "name": "",
          "type": "bool"
        },
        {
          "name": "",
          "type": "string"
        }
      ],
      "payable": false,
      "stateMutability": "view",
      "type": "function"
    },
    {
      "constant": false,
      "inputs": [
        {
          "name": "chkpt",
          "type": "uint256"
        }
      ],
      "name": "toggleCheckpoint",
      "outputs": [],
      "payable": false,
      "stateMutability": "nonpayable",
      "type": "function"
    },
    {
      "constant": false,
      "inputs": [
        {
          "name": "payments",
          "type": "uint256[]"
        }
      ],
      "name": "recordPayment",
      "outputs": [],
      "payable": true,
      "stateMutability": "payable",
      "type": "function"
    },
    {
      "constant": false,
      "inputs": [],
      "name": "executePayment",
      "outputs": [
        {
          "name": "",
          "type": "bool"
        }
      ],
      "payable": false,
      "stateMutability": "nonpayable",
      "type": "function"
    }
  ],
  "bytecode": "0x60806040523480156200001157600080fd5b50604051620015f7380380620015f7833981018060405281019080805182019291906020018051820192919060200180519060200190929190805182019291906020018051820192919050505060008160069080519060200190620000789291906200015c565b508560039080519060200190620000919291906200015c565b508460049080519060200190620000aa9291906200015c565b5033600260006101000a81548173ffffffffffffffffffffffffffffffffffffffff021916908373ffffffffffffffffffffffffffffffffffffffff1602179055508260059080519060200190620001049291906200015c565b508360078190555060006008819055506000600a81905550600090505b838110156200015057600080600083815260200190815260200160002081905550808060010191505062000121565b5050505050506200020b565b828054600181600116156101000203166002900490600052602060002090601f016020900481019282601f106200019f57805160ff1916838001178555620001d0565b82800160010185558215620001d0579182015b82811115620001cf578251825591602001919060010190620001b2565b5b509050620001df9190620001e3565b5090565b6200020891905b8082111562000204576000816000905550600101620001ea565b5090565b90565b6113dc806200021b6000396000f3006080604052600436106100e6576000357c0100000000000000000000000000000000000000000000000000000000900463ffffffff16806306fdde03146100eb57806308ac16ed1461017b57806309bd5a60146101d4578063102679771461026457806327e235e3146102915780632d308ac6146102e85780632ddbd13a146103175780634a79d50c146103425780634abfa163146103d25780636cff968b146104465780637284e416146104715780638da5cb5b14610501578063b8a2425214610558578063ca60249214610599578063e62d3ff5146107c0578063f332687d146107eb575b600080fd5b3480156100f757600080fd5b50610100610816565b6040518080602001828103825283818151815260200191508051906020019080838360005b83811015610140578082015181840152602081019050610125565b50505050905090810190601f16801561016d5780820380516001836020036101000a031916815260200191505b509250505060405180910390f35b6101d2600480360381019080803590602001908201803590602001908080602002602001604051908101604052809392919081815260200183836020028082843782019150505050505091929192905050506108b4565b005b3480156101e057600080fd5b506101e9610bd8565b6040518080602001828103825283818151815260200191508051906020019080838360005b8381101561022957808201518184015260208101905061020e565b50505050905090810190601f1680156102565780820380516001836020036101000a031916815260200191505b509250505060405180910390f35b34801561027057600080fd5b5061028f60048036038101908080359060200190929190505050610c76565b005b34801561029d57600080fd5b506102d2600480360381019080803573ffffffffffffffffffffffffffffffffffffffff169060200190929190505050610c80565b6040518082815260200191505060405180910390f35b3480156102f457600080fd5b506102fd610c98565b604051808215151515815260200191505060405180910390f35b34801561032357600080fd5b5061032c610eb9565b6040518082815260200191505060405180910390f35b34801561034e57600080fd5b50610357610ebf565b6040518080602001828103825283818151815260200191508051906020019080838360005b8381101561039757808201518184015260208101905061037c565b50505050905090810190601f1680156103c45780820380516001836020036101000a031916815260200191505b509250505060405180910390f35b3480156103de57600080fd5b506103fd60048036038101908080359060200190929190505050610f5d565b604051808373ffffffffffffffffffffffffffffffffffffffff1673ffffffffffffffffffffffffffffffffffffffff1681526020018281526020019250505060405180910390f35b34801561045257600080fd5b5061045b610fa1565b6040518082815260200191505060405180910390f35b34801561047d57600080fd5b50610486610fa7565b6040518080602001828103825283818151815260200191508051906020019080838360005b838110156104c65780820151818401526020810190506104ab565b50505050905090810190601f1680156104f35780820380516001836020036101000a031916815260200191505b509250505060405180910390f35b34801561050d57600080fd5b50610516611045565b604051808273ffffffffffffffffffffffffffffffffffffffff1673ffffffffffffffffffffffffffffffffffffffff16815260200191505060405180910390f35b34801561056457600080fd5b506105836004803603810190808035906020019092919050505061106b565b6040518082815260200191505060405180910390f35b3480156105a557600080fd5b506105ae611083565b604051808a73ffffffffffffffffffffffffffffffffffffffff1673ffffffffffffffffffffffffffffffffffffffff168152602001806020018060200180602001898152602001888152602001878152602001861515151581526020018060200185810385528d818151815260200191508051906020019080838360005b8381101561064857808201518184015260208101905061062d565b50505050905090810190601f1680156106755780820380516001836020036101000a031916815260200191505b5085810384528c818151815260200191508051906020019080838360005b838110156106ae578082015181840152602081019050610693565b50505050905090810190601f1680156106db5780820380516001836020036101000a031916815260200191505b5085810383528b818151815260200191508051906020019080838360005b838110156107145780820151818401526020810190506106f9565b50505050905090810190601f1680156107415780820380516001836020036101000a031916815260200191505b50858103825286818151815260200191508051906020019080838360005b8381101561077a57808201518184015260208101905061075f565b50505050905090810190601f1680156107a75780820380516001836020036101000a031916815260200191505b509d505050505050505050505050505060405180910390f35b3480156107cc57600080fd5b506107d56113a4565b6040518082815260200191505060405180910390f35b3480156107f757600080fd5b506108006113aa565b6040518082815260200191505060405180910390f35b60048054600181600116156101000203166002900480601f0160208091040260200160405190810160405280929190818152602001828054600181600116156101000203166002900480156108ac5780601f10610881576101008083540402835291602001916108ac565b820191906000526020600020905b81548152906001019060200180831161088f57829003601f168201915b505050505081565b600080600034600960008282540192505081905550600a54925060009150600090505b600a54811015610964573373ffffffffffffffffffffffffffffffffffffffff166001600083815260200190815260200160002060010160009054906101000a900473ffffffffffffffffffffffffffffffffffffffff1673ffffffffffffffffffffffffffffffffffffffff1614156109575780925060019150610964565b80806001019150506108d7565b60408051908101604052803373ffffffffffffffffffffffffffffffffffffffff1681526020016007548152506001600085815260200190815260200160002060008201518160010160006101000a81548173ffffffffffffffffffffffffffffffffffffffff021916908373ffffffffffffffffffffffffffffffffffffffff16021790555060208201518160020155905050600090505b600754811015610bc1578381815181101515610a1557fe5b90602001906020020151600080838152602001908152602001600020600082825401925050819055506000821115610b7157600160008481526020019081526020016000206000016000828152602001908152602001600020546000808381526020019081526020016000206000828254039250508190555060016000848152602001908152602001600020600001600082815260200190815260200160002054600b60003373ffffffffffffffffffffffffffffffffffffffff1673ffffffffffffffffffffffffffffffffffffffff168152602001908152602001600020600082825401925050819055503373ffffffffffffffffffffffffffffffffffffffff166108fc600160008681526020019081526020016000206000016000848152602001908152602001600020549081150290604051600060405180830381858888f19350505050158015610b6f573d6000803e3d6000fd5b505b8381815181101515610b7f57fe5b906020019060200201516001600085815260200190815260200160002060000160008381526020019081526020016000208190555080806001019150506109fd565b6001600a6000828254019250508190555050505050565b60068054600181600116156101000203166002900480601f016020809104026020016040519081016040528092919081815260200182805460018160011615610100020316600290048015610c6e5780601f10610c4357610100808354040283529160200191610c6e565b820191906000526020600020905b815481529060010190602001808311610c5157829003601f168201915b505050505081565b8060088190555050565b600b6020528060005260406000206000915090505481565b600080600260009054906101000a900473ffffffffffffffffffffffffffffffffffffffff1673ffffffffffffffffffffffffffffffffffffffff163373ffffffffffffffffffffffffffffffffffffffff16141515610cf757600080fd5b6001600860008282540192505081905550600080600854815260200190815260200160002054600b60003373ffffffffffffffffffffffffffffffffffffffff1673ffffffffffffffffffffffffffffffffffffffff16815260200190815260200160002060008282540192505081905550600260009054906101000a900473ffffffffffffffffffffffffffffffffffffffff1673ffffffffffffffffffffffffffffffffffffffff166108fc3073ffffffffffffffffffffffffffffffffffffffff16319081150290604051600060405180830381858888f19350505050158015610de8573d6000803e3d6000fd5b50600090505b600a54811015610eb157600160008281526020019081526020016000206000016000600854815260200190815260200160002054600b60006001600085815260200190815260200160002060010160009054906101000a900473ffffffffffffffffffffffffffffffffffffffff1673ffffffffffffffffffffffffffffffffffffffff1673ffffffffffffffffffffffffffffffffffffffff168152602001908152602001600020600082825403925050819055508080600101915050610dee565b600191505090565b60095481565b60038054600181600116156101000203166002900480601f016020809104026020016040519081016040528092919081815260200182805460018160011615610100020316600290048015610f555780601f10610f2a57610100808354040283529160200191610f55565b820191906000526020600020905b815481529060010190602001808311610f3857829003601f168201915b505050505081565b60016020528060005260406000206000915090508060010160009054906101000a900473ffffffffffffffffffffffffffffffffffffffff16908060020154905082565b600a5481565b60058054600181600116156101000203166002900480601f01602080910402602001604051908101604052809291908181526020018280546001816001161561010002031660029004801561103d5780601f106110125761010080835404028352916020019161103d565b820191906000526020600020905b81548152906001019060200180831161102057829003601f168201915b505050505081565b600260009054906101000a900473ffffffffffffffffffffffffffffffffffffffff1681565b60006020528060005260406000206000915090505481565b600060608060606000806000806060600260009054906101000a900473ffffffffffffffffffffffffffffffffffffffff16600360046005600754600854600954600260009054906101000a900473ffffffffffffffffffffffffffffffffffffffff1673ffffffffffffffffffffffffffffffffffffffff163373ffffffffffffffffffffffffffffffffffffffff16146006878054600181600116156101000203166002900480601f0160208091040260200160405190810160405280929190818152602001828054600181600116156101000203166002900480156111ac5780601f10611181576101008083540402835291602001916111ac565b820191906000526020600020905b81548152906001019060200180831161118f57829003601f168201915b50505050509750868054600181600116156101000203166002900480601f0160208091040260200160405190810160405280929190818152602001828054600181600116156101000203166002900480156112485780601f1061121d57610100808354040283529160200191611248565b820191906000526020600020905b81548152906001019060200180831161122b57829003601f168201915b50505050509650858054600181600116156101000203166002900480601f0160208091040260200160405190810160405280929190818152602001828054600181600116156101000203166002900480156112e45780601f106112b9576101008083540402835291602001916112e4565b820191906000526020600020905b8154815290600101906020018083116112c757829003601f168201915b50505050509550808054600181600116156101000203166002900480601f0160208091040260200160405190810160405280929190818152602001828054600181600116156101000203166002900480156113805780601f1061135557610100808354040283529160200191611380565b820191906000526020600020905b81548152906001019060200180831161136357829003601f168201915b50505050509050985098509850985098509850985098509850909192939495969798565b60085481565b600754815600a165627a7a7230582062500ffa84248464f0459d8f6627cdba36783f20c04c7cc9453ce3b149800f680029",
  "source": "pragma solidity ^0.4.0;\ncontract Campaign {\n\n\t// struct Checkpoint {\n\t// \tuint256 amount;\n\t// }\n\n\tstruct Donor {\n    \tmapping(uint256 => uint256) amounts;\n    \taddress donorAddress;\n    \tuint256 numAmount;\n\t}\n\n\tmapping(uint256 => uint256) public checkpoints;\n\tmapping(uint256 => Donor) public donors;\n\n\taddress public owner;\n\tstring public title;\n\tstring public name;\n\tstring public description;\n\tstring public hash;\n\n\tuint256 public totalCheckpoints;\n\tuint256 public currCheckpoint;\n\tuint256 public total;\n\n\tuint256 public donorNum;\n\n\tmapping(address => uint256) public balances;\n\n\tfunction Campaign(string t, string n, uint256 numChckpts, string descr, string _hash) {\n\n        hash = _hash;\n    \ttitle = t;\n    \tname = n;\n    \towner = msg.sender;\n    \tdescription = descr;\n    \ttotalCheckpoints = numChckpts;\n    \tcurrCheckpoint = 0;\n    \tdonorNum = 0;\n\n    \tfor (uint256 i = 0; i < numChckpts; i++) {\n        \tcheckpoints[i] = 0;\n    \t}\n\t}\n\n\tfunction getFields() constant returns (address, string, string, string, uint256, uint256, uint256, bool, string) {\n        return (owner, title, name, description, totalCheckpoints, currCheckpoint, total, msg.sender == owner, hash);\n    }\n\n\tfunction toggleCheckpoint(uint256 chkpt) {\n    \tcurrCheckpoint = chkpt;\n\t}\n\n\tfunction recordPayment(uint256[] payments) payable {\n    \ttotal += msg.value;\n    \tuint256 index = donorNum;\n\n    \tuint256 alrdyExist = 0;\n\n    \tfor (uint256 j = 0; j < donorNum; j++) {\n        \tif (donors[j].donorAddress == msg.sender) {\n            \tindex = j;\n            \talrdyExist = 1;\n            \tbreak;\n        \t}\n    \t}\n\n    \tdonors[index] = Donor(msg.sender, totalCheckpoints);\n\n    \tfor (j = 0; j < totalCheckpoints; j++) {\n\n        \tcheckpoints[j] += payments[j];\n\n        \tif (alrdyExist > 0) {\n            \tcheckpoints[j] -= donors[index].amounts[j];\n            \tbalances[msg.sender] += donors[index].amounts[j];\n            \tmsg.sender.transfer(donors[index].amounts[j]);\n        \t}\n\n        \tdonors[index].amounts[j] = payments[j];\n\n    \t}\n\n    \tdonorNum += 1;\n\n\t}\n\n\t//executed by receiver\n\tfunction executePayment() returns (bool) {\n\n    \t//require(this.balance >= checkpoints[currCheckpoint]);\n    \trequire(msg.sender == owner);\n\n        currCheckpoint += 1;\n    \tbalances[msg.sender] += checkpoints[currCheckpoint];\n    \towner.transfer(this.balance);\n    \t// total += checkpoints[currCheckpoint];\n\n    \tfor (uint256 j = 0; j < donorNum; j++) {\n        \tbalances[donors[j].donorAddress] -= donors[j].amounts[currCheckpoint];\n    \t}\n\n    \treturn true;\n\n\t}\n\n\n}\n",
  "sourcePath": "/Users/imac/Pingendo/Angelhacks/blockchainge/blockchain/contracts/Campaign.sol",
  "compiler": {
    "name": "solc",
    "version": "0.4.23+commit.124ca40d.Emscripten.clang"
  },
  "schemaVersion": "2.0.0",
  "updatedAt": "2018-06-24T14:07:35.358Z"
}