{
  "contractName": "SimpleStorage",
  "abi": [
    {
      "constant": true,
      "inputs": [
        {
          "name": "",
          "type": "address"
        }
      ],
      "name": "favoriteNumbers",
      "outputs": [
        {
          "name": "",
          "type": "uint256"
        }
      ],
      "payable": false,
      "stateMutability": "view",
      "type": "function"
    },
    {
      "constant": false,
      "inputs": [
        {
          "name": "x",
          "type": "uint256"
        }
      ],
      "name": "setFavorite",
      "outputs": [],
      "payable": false,
      "stateMutability": "nonpayable",
      "type": "function"
    }
  ],
  "bytecode": "0x608060405234801561001057600080fd5b5061015f806100206000396000f30060806040526004361061004c576000357c0100000000000000000000000000000000000000000000000000000000900463ffffffff1680634b24c0a9146100515780638afd775a1461007e575b600080fd5b34801561005d57600080fd5b5061007c600480360381019080803590602001909291905050506100d5565b005b34801561008a57600080fd5b506100bf600480360381019080803573ffffffffffffffffffffffffffffffffffffffff16906020019092919050505061011b565b6040518082815260200191505060405180910390f35b806000803373ffffffffffffffffffffffffffffffffffffffff1673ffffffffffffffffffffffffffffffffffffffff1681526020019081526020016000208190555050565b600060205280600052604060002060009150905054815600a165627a7a7230582093845832e18ca1267a88e8d8d5b76ebb1a1bc3a97e7060463984665430628ac50029",
  "source": "pragma solidity ^0.4.17;\n\ncontract SimpleStorage {\n  mapping(address => uint256) public favoriteNumbers;\n\n  function setFavorite(uint x) public {\n    favoriteNumbers[msg.sender] = x;\n  }\n}",
  "sourcePath": "/Users/imac/Pingendo/Angelhacks/blockchainge/blockchain/contracts/SimpleStorage.sol",
  "compiler": {
    "name": "solc",
    "version": "0.4.23+commit.124ca40d.Emscripten.clang"
  },
  "schemaVersion": "2.0.0",
  "updatedAt": "2018-06-24T04:02:36.783Z"
}